:10000000E07F0010CD000000651C0000791C00009E
:100010008D1C0000A11C0000B51C000000000000A9
:10002000000000000000000000000000352100007A
:100030003721000000000000392100003B210000B2
:100040003D2100003D2100003D2100003D21000038
:100050003D210000590700003D2100003D21000026
:100060003D2100003D2100003D2100003D21000018
:100070003D2100003D2100003D2100003D21000008
:100080003D2100003D2100003D2100003D210000F8
:100090003D2100003D2100003D2100003D210000E8
:1000A000F11500003D2100003D2100003D21000030
:1000B0003D2100003D2100003D2100003D210000C8
:1000C0003D2100003D2100003D2100000D490E4A68
:1000D0000E4B9A423EBF51F8040B42F8040BF8E76E
:1000E00000200B490B4A91423CBF41F8040BFAE750
:1000F0000948804709488047094880470948004720
:10010000FEE70000E03B0000000000109800001037
:1001100098000010F00B00102D220000412100007B
:10012000EF180000511A00000348044B834202D02C
:10013000034B03B118477047980000109800001057
:100140000000000005480649091A891001EBD17129
:10015000491002D0034B03B11847704798000010B4
:10016000980000100000000010B5064C237843B939
:10017000FFF7DAFF044B13B10448AFF3008001230B
:10018000237010BD9800001000000000903B00009C
:1001900008B5044B1BB104490448AFF30080BDE827
:1001A0000840CFE7000000009C000010903B0000DA
:1001B00037B5044601220020324B02291A708DF80F
:1001C00004008DF80300304B1DD1032C54D118606E
:1001D0002E4B2F4818608DF80220C1F34213684659
:1001E00001F01F012B4D8DF800308DF80110A8474C
:1001F000C4F34213684604F01F048DF800308DF8F4
:100200000140A8473BE051B9012C35D103221A60C7
:100210001E4B214A1A6002238DF80230DDE70A29BD
:1002200006D10B2C28D102201860184B1B48D1E7AF
:100230000F2905D1102C1FD11A601948134BC9E79B
:10024000192906D11A2C17D1032213481A600F4B13
:10025000C0E7402905D1412C0ED11A600B4B104A42
:10026000D8E7482904D1492C06D102221A60DCE7DC
:100270009C2901D19D2CE6E74FF0FF321A6003B0B4
:1002800030BD00BFE0040010D0020010DC040010FC
:1002900000C000405523000000C009400080094014
:1002A0000000014000232DE9F04F8F4F9E46B842D9
:1002B0008CBF012703271E468C4A89B013708C4AD5
:1002C0004FEA001911791371517953719179937132
:1002D000D179D371117813705178537091789370EC
:1002E000D178D370834A117913715179537191790F
:1002F0009371D179D37111781370517853709178CB
:100300009370D178D3707C4A03931268009304925F
:10031000049A4FF00108FA4051008B4652010592B1
:10032000FAB20291CDF80490069200255FFA88F2A5
:10033000DDF804A00792BBFBFAF101314908B1F5E1
:10034000803F2DD2002900F0CA8015B1012908BFD5
:1003500002212A034A43B2FBF8F2059C02EB013268
:10036000B4FBF2F2D200904294BFA2EB000CA0EBDF
:10037000020CB04294BF341A841B644510D9069B0A
:1003800090420093079B1FFA81FE0393EBB221D0AA
:100390004FF4C06101FB0CFCBCFBF0F1D1B116467F
:1003A00001354545CA44C6D1019A05F101084A44C0
:1003B0000192029AB8F1100F9344B6D1C821B0420D
:1003C00094BF321A821B4A43B2FBF0F212B1013FD2
:1003D000032F9DD9009A032A1BBF484A0099009C0D
:1003E000545C474A1268032A76D8DFE802F00242DA
:1003F00053644449D1F8C42042F00802C1F8C42033
:10040000D1F8A82122F0C00242EA8414C1F8A84120
:1004100005213D4A1268147B44F0800414734FEAAE
:100420001E245FFA8EFE147182F800E0147B04F043
:100430007F041473039C43EA0413DBB282F8283070
:100440000723137203231373002382F8243092F8D6
:10045000303043F0800382F8303001234A0901F044
:100460001F0103FA01F1294B43F8221009B0BDE83E
:10047000F08F2449D1F8C42042F01002C1F8C42002
:10048000D1F8A82122F4407242EA0424C1F8A8411C
:100490000621BEE71B49D1F8C42042F08072C1F8A2
:1004A000C420D1F8AC2122F4403242EA0444C1F81D
:1004B000AC410721ADE71349D1F8C42042F00072E6
:1004C000C1F8C420D1F8AC2122F4402242EA84448D
:1004D000C1F8AC4108219CE74FF0FF3199E7002DAE
:1004E00014BF0221012134E73F420F00CC0200106B
:1004F000D4020010C400001090000010C4370000A7
:10050000D002001000C00F40DC04001000E100E049
:1005100010B51446034B98472046BDE81040024BE7
:10052000184700BFB1010000A50200000B4B1B687B
:10053000032B07D8DFE803F002070A0D2022084B3F
:10054000C3F880207047064B4022F9E7044B802215
:10055000F6E7034B4FF48072F2E700BFD0020010C1
:1005600000E100E0044B58681B6800F2FF10C01A5D
:10057000C0F30800704700BFD4020010064B1B6890
:100580001B7D5B065FBF054B18685B68C01A54BFD4
:10059000C0F3080000207047DC040010D4020010F3
:1005A00070B5194C002201212068184DA847184E3B
:1005B0002068B0470128FBD02068164B1A6859689C
:1005C0004A40C2F308025AB91C685B68124E5C408C
:1005D000C4F3080484B922460121A847347070BDD1
:1005E0005A68511C59601A44127AD2B202705A6881
:1005F000C2F308025A60E1E701222B46327011462D
:10060000BDE87040184700BFDC040010D123000093
:1006100037240000D4020010CC020010F8B5EFF32C
:10062000058212F01F0200D172B60025224B234E24
:100630008D4208D05F681C6801347C40C4F3080414
:1006400054B9347844B902B962B61D4B1B780BB962
:100650001C4B98472846F8BD02B962B65F681C6813
:1006600001347C40C4F3080414BB3478DCB1D2B943
:100670005F681C6801347C40C4F308048CB172B616
:100680001C68671C1F60475D1C4427721C68C4F30C
:1006900008041C6002B962B60135002AC8D172B6DE
:1006A000C6E730BFE4E75C680134C4F308045C606B
:1006B000002AE5D1E3E700BFD4020010E0040010F7
:1006C000CC020010A105000010B50D4B18680D4BB1
:1006D000027DD20713D501785C681A68C9B201326D
:1006E0006240C2F30802002AF2D01A68541C1A446D
:1006F0001C6011721A68C2F308021A60E8E710BDA4
:10070000DC040010C400001070B50E4D0E4B2868BC
:10071000984700F00E04062C06D128680B4B98472A
:1007200010F09E0F0CD0FEE700F00600042801D167
:10073000074B9847022C03D1BDE87040054B184782
:1007400070BD00BFDC0400102B2400002524000035
:10075000C9060000A1050000004B1847090700006A
:100760003022064B000440F4A060C3F80822C3F80E
:100770001002D3F80022D206FBD5704700C000500B
:100780002022084B000440F40070C3F80822C3F88C
:100790001002D3F800229206FBD5D3F81402C0B29F
:1007A000704700BF00C000501022064B904040F43C
:1007B0008070C3F80822C3F81002D3F80022D206D2
:1007C000FBD5704700C0005008B5014672B6D02076
:1007D000034B9847034B41F08000984762B608BD31
:1007E00061070000A907000008B5014672B6D820CD
:1007F000034B9847034B0846984762B608BD00BFB5
:1008000061070000A907000008B5014672B6F32091
:10081000034B9847034B0846984762B608BD00BF94
:1008200061070000A907000008B5014672B6FE2066
:10083000034B9847034B0846984762B608BD00BF74
:1008400061070000A907000008B572B6FE20034B3F
:100850009847034BFE20984762B608BD6107000029
:100860008107000008B572B6410001F01E0141EA9F
:10087000D0110846034B9847034B0846984762B689
:1008800008BD00BF610700008107000072B6430089
:1008900003F01E0343EAD010012303FA00F0064BD5
:1008A000C3F83802D3F800229206FBD5D3F814021D
:1008B00062B6C0B2704700BF00C0005008B572B643
:1008C000430003F01E0343EAD01040F04000034B06
:1008D0009847034B0846984762B608BD6107000079
:1008E000A907000008B572B6F220034B9847034BE6
:1008F000F220984762B608BD61070000810700003A
:1009000008B572B6FA20024B984762B608BD00BF20
:100910006107000010B5044B9847BDE8104040F057
:100920000100C0B2014B1847490800002908000027
:1009300010B5044B9847BDE8104000F0FE00024B94
:10094000184700BF4908000029080000014B186043
:10095000704700BF3805001000230221044A53707D
:100960001370044A117153719371D371704700BFB2
:10097000F6040010E40400100021F0B5184B194AE9
:100980009C891268250A6E1EE4B2107830B90122E3
:10099000187158719871D8711A7218E05778AF426F
:1009A0001CD1042E06D8DFE806F01503051313004A
:1009B000547921468C4210D1022F1A600ABF528806
:1009C00058605A6059681A8A914200DD5A60F0BD39
:1009D0009178EFE700210C46ECE701310244D4E7BF
:1009E000E4040010380500100120014B184700BF37
:1009F000E907000001210022034B1970034B197114
:100A00005A719A71DA717047F6040010E40400100C
:100A10000348837A13F07C0F01D0024B18477047CC
:100A2000E40400105520000010B51E4C0822214699
:100A300000201D4B9847082833D10023A4F10A0059
:100A400043721A4B44F80A3C038A4360837A13F0DA
:100A50007C0F22D1C27A092A1BD8DFE802F00522D6
:100A60001A221A0914221618114BBDE81040184713
:100A70008089104BC0B29847BDE81040002280200A
:100A800011460D4B18470D4BEFE70D4BEDE70D4BA6
:100A9000EBE70D4BBDE8104018470C4BBDE810408C
:100AA000184710BDEE04001025140000F6040010D5
:100AB00059090000C90700009D14000079090000D1
:100AC000F5090000E909000001150000FD1F000004
:100AD00070B51A4C637AC3B994F90A306568002B73
:100AE0001EDA9DB1412D34BF2A464022144B2168A5
:100AF00080209847636822681B1A02446360226062
:100B00001BB9402801D10123237270BD237A002B29
:100B1000FBD02A4629468020094B98472572F4E7E6
:100B2000002DF2D12A462946054B80209847012303
:100B30006372044BBDE87040184700BFE404001026
:100B40009D140000110A000010B5194C607A40BBDA
:100B500094F90A306268002B15DB164B52B12168FC
:100B60009847636883420ADB1B1A63602368184452
:100B7000206010BD1146104698470028F9D0BDE806
:100B800010400D4B1847002AF9D111461046094B69
:100B900098470028F3D101236372084BBDE8104049
:100BA00018474022BDE8104005490020014B184776
:100BB000E40400102514000001150000110A0000D3
:100BC000F6040010004B1847F11FFF1F38B504460C
:100BD00072B633250548C0E90051C0E90223044933
:100BE000044B0461984762B638BD00BF3C05001055
:100BF00050050010C50B000010B43424044BC3E9A9
:100C00000040C3E9021218460249034B10BC1847C2
:100C10003C05001050050010C50B000010B4322434
:100C2000044BC3E90040C3E9021218460249034BD2
:100C300010BC18473C05001050050010C50B000003
:100C400070B5054672B604246FF4D0220F2C9ABFFB
:100C5000230303F6FF7302EBC4338B4219D90F2C25
:100C600085BF04F5FF3303F5F9732303DB038B42E0
:100C70000A4E08D12A4621462046B0472A46214638
:100C80002046074B98472A4621462046B04762B681
:100C900070BD01341E2CD9D1F9E700BF1D0C000036
:100CA000F90B00002DE9F843194C236803B92060C3
:100CB0000023184E184835682844934221D11D441A
:100CC000B5F5007F356020D14FF47A78DFF8589081
:100CD000124FD9F800002168B0FBF8F0104B98478C
:100CE000386860B9D9F800002B46B0FBF8F00A4A22
:100CF00021680C4DA847386808B930602060BDE80D
:100D0000F883CF5CC7540133D7E70020F7E700BF73
:100D1000B8000010B4000010640500105005001069
:100D2000410C0000CD0B00009000001070B50024B5
:100D3000064620460131891A8C4200DB70BDA51899
:100D4000A6EBE503DB7B05F007052B4103F0010370
:100D5000A34018430134EFE710B51C46064B9847F3
:100D60002046064B98472046054B9847054B2046A2
:100D70009847054B1C8010BD9116000045180000D7
:100D8000651800007D1800006C070010024B186801
:100D9000B0FA80F04009704774070010014B1868E2
:100DA000704700BF740700104FF4007070470000D8
:100DB00070B504460D46184E184BB6F9000098471A
:100DC00044F04000C0B2164CA047280EA047C5F31F
:100DD0000740A047C5F30720A047E8B2A0479520E9
:100DE000A0474FF48055FF20A047030608D40546CE
:100DF0000C4BB6F900009847FF20A047284670BD6D
:100E0000013DF0D1B6F90000064B9847FF20A047FE
:100E10004FF0FF35F2E700BF6C070010911800009B
:100E2000F51700007D18000038B54FF48054094DC7
:100E300000213720A84700212920A84718B9012000
:100E4000054B186038BD013CF2D10448044B98476B
:100E50002046F7E7B10D0000700700101A390000B6
:100E6000011F000070B504460E46134D134BB5F933
:100E70000000984744F04000C0B2114CA047300E2B
:100E8000A047C6F30740A047C6F30720A047F0B22B
:100E9000A0479520A0474FF48056FF20A0470306A7
:100EA00009D5013EF9D1B5F90000064B9847FF205E
:100EB000A0474FF0FF3070BD6C0700109118000084
:100EC000F51700007D1800002DE9F041214F224B5D
:100ED0000546B7F900009847204C7A20A04700202B
:100EE000A0470020A0470020A0470020A047952051
:100EF000A0474FF48058FF20A04703061ED40646A3
:100F0000FF20A04700062860FF20A0472B6843EA87
:100F100000402860FF20A0472B6843EA002028609B
:100F2000FF20A0472B68184328600D4BB7F900003D
:100F30009847FF20A0473046BDE8F081B8F101088E
:100F4000D9D1B7F90000064B9847FF20A0474FF0D2
:100F5000FF36F0E76C07001091180000F51700004D
:100F60007D18000037B54FF480540F4D0021372015
:100F7000A8474FF080412920A84760B90B4B01A832
:100F80009847019B13F0804F14BF03200220084BA9
:100F9000186003B030BD013CE8D1064B06489847C5
:100FA000034B20461C60F4E7B10D0000C90E0000A1
:100FB00070070010011F00003F390000F7B51B4DFE
:100FC0001B4BB5F9000098471A4C4820A047002059
:100FD000A0470020A0470120A047AA20A0478720C3
:100FE000A0474FF47A16FF20A047030613D401262A
:100FF00002AF07F8080DFF20A047B8550136052EAF
:10100000F9D1B5F900000C4B9847FF20A0479DF897
:10101000000003B0F0BD013EE5D1B5F90000064B7C
:101020009847FF20A0474FF0FF30F2E76C07001011
:1010300091180000F51700007D18000070B546F209
:10104000A810134B9847134B1024B3F90000124B10
:101050009847124DFF20A847013CFBD1214620466E
:101060000F4B9847012803D00E4B00201C6070BD29
:101070000D4B9847012803D10C4BBDE87040184731
:10108000052801D10A4BF8E70A4B0B489847EBE7D4
:10109000051600006C0700107D180000F517000011
:1010A000B10D000070070010BD0F0000650F0000BB
:1010B000290E0000011F0000D63800002DE9F04184
:1010C000114D124E0746124BB5F9000088463446C2
:1010D0009847FF20B047FE28FBD13E46F31B9845BA
:1010E0004FF0FF000BDCA047FF20A047B5F9000040
:1010F000084B9847FF20A0470020BDE8F081A0479B
:1011000006F8010BEAE700BF6C070010F5170000B6
:10111000911800007D18000038B50C4B05461B687F
:101120005A1E012A0CD849021120094B984704463F
:1011300050B94FF400712846064B9847204638BDF9
:10114000032B18BF0021EFE70124F7E77007001019
:10115000B10D0000BD1000002DE9F0410746184D0B
:10116000184BB5F900008846174C9847FE20A04759
:101170003E46F31B984512DCFF20A047FF20A04706
:10118000FF20A04700F01F0005280CD0B5F9000093
:101190000E4B9847FF20A0470120BDE8F08116F8CC
:1011A000010BA047E5E7FF20A0470028FBD0B5F9D9
:1011B0000000064B9847FF20A0470020EDE700BF46
:1011C0006C07001091180000F51700007D18000052
:1011D00038B50C4B05461B685A1E012A0CD849022B
:1011E0001820094B9847044650B94FF4007128461F
:1011F000064B9847204638BD032B18BF0021EFE768
:101200000124F7E770070010B10D0000591100002C
:101210007FB5002109202A4B9847044630B1294860
:10122000294B98470024204604B070BD1021684621
:10123000264B9847054618B12548234B9847F2E7B7
:101240007E227F216846234EB047044608BB224BCE
:101250001B68032B01D12148EFE73E224921684654
:10126000B0472F22054631216846B0475022044638
:1012700053216846B0470123013583400234B3F55A
:10128000007F05FA04F42BBF5B0A84405C43640AC8
:10129000C9E701280FD1104B1B68032B04D010485D
:1012A000094B98472C46BEE7302245216846B04797
:1012B00001308402B7E70146034B0A489847F1E73B
:1012C000650E0000C7370000011F0000BD100000C0
:1012D000F83700002D0D0000700700102A380000BC
:1012E0005C3800008F380000002310B50C4C2360E0
:1012F0000C4B984760B10C4B98474FF4007120603D
:101300000A4B10209847044620B10948094B9847DA
:10131000012402E00848094B9847204610BD00BF51
:10132000740700103D10000011120000B10D000004
:10133000AC380000011F0000C0C62D0005160000DB
:1013400010B5134AD2F8C43043F00043C2F8C43099
:10135000104BD3F8F42F42F01202C3F8F42FD3F855
:10136000F82F122AFBD10C4C636823F07053636092
:10137000636843F0A0536360084B9847236923F4E4
:1013800040332361236943F48023236110BD00BFF0
:1013900000C00F4000C0005000C0024031090000F2
:1013A000004B18473109000010B572B64FF4807237
:1013B000104BC3F80822420002F01E0242EAD0108D
:1013C0000122D3F8444282401443C3F84442C3F894
:1013D0004802C3F84C1262B6D3F80012C905FBD517
:1013E0004FF48071C3F80812D3F834120A43C3F8DB
:1013F000342210BD00C000500C2210B5064B074C23
:10140000C3F8042240218020A04740210020A047AB
:10141000BDE81040024B184700C00050A91300005F
:1014200015090000F8B572B6840004F03C04184BAE
:1014300044F00104C3F82842D3F820422405FBD528
:10144000D3F82042C4F30904944202DD62B6204678
:10145000F8BDC4B9D3F818320E4B98470E4B9847D5
:10146000F4E713F0030708BFD6F81852032FCD5442
:101470004FEA152503D1D6F82872FF07ECD50133C2
:101480009342EED1E8E70025014E2B46F8E700BF76
:1014900000C0005065080000E508000070B5144663
:1014A00072B68200134B02F03C0242F00202C3F813
:1014B0002822C3F82442D4B9C3F81C4225460AE0C6
:1014C00012680435C3F81C22D3F828624A19B607FB
:1014D00001D5A542F4DB084B9847084B9847BFF36A
:1014E0006F8F62B6A5422846A8BF204670BD002572
:1014F000EAE700BF00C000506508000001090000D5
:1015000080210020004B1847BD080000F7B52E4B86
:10151000D3F80022D70744BF0122C3F80822D3F82A
:101520000022160712D50822C3F80822274B984735
:10153000C5060BD5264B9847264C40218020A04756
:1015400000204021A0470220234B98471E4BD3F890
:10155000002254072CD5D3F83042E00706D50020EE
:101560001E4B9847410725D51D4B9847A20706D526
:101570001A4B80209847C30701D41A4B984734F080
:10158000030311D0082503240F4E144FD6F8303230
:101590002B4204D0E00140EA6400C0B2B8470134F5
:1015A000202C4FEA4505F1D10422074BC3F808224D
:1015B00003B0F0BD10F0010001D00B4BD5E70822BD
:1015C00069460A4B9847D1E700C00050490800001F
:1015D000F9200000A9130000090800008D08000090
:1015E000290A0000D10A0000490B00002514000060
:1015F000684620F007018D4601B5BDE801408546EB
:10160000704700001E4A1F4BB2FBF0F21A601E4BDF
:101610001B68A3B1B0F5C07F12D86FF001011A7C2E
:1016200000221974597C5A74997C9A74D97CDA74A2
:101630001A68D2B21A601A6842F47F421A60704780
:10164000124988420CD902211A7C00221974597C53
:101650005A74997C9A74D97CDA741A68D2B2EDE71C
:1016600002F0FE0119611968C9B219601869196898
:10167000B2FBF0F2013A120292B20A43DEE700BF77
:1016800040787D01800700107807001020BCBE0064
:101690002DE9F04101240E461546074600F01F01D2
:1016A000224604FA01F1DFF84881C0F34210C04736
:1016B00006F01F0104FA01F10022C6F34210C047F0
:1016C00005F01F01224604FA01F1C5F34210C0479C
:1016D000092F414C3ED1082E7AD1072D78D13F4BAE
:1016E0002360A3F580431A6822F47C221A601A68EA
:1016F00042F428221A6003F55023D3F8A82122F4DB
:101700004012C3F8A821D3F8A82142F48012C3F8EC
:10171000A821D3F8C42042F48062C3F8C42023680F
:10172000B3B11A6842F21070120C12041A601A68EF
:1017300042F007021A605A6822F00F025A605A6893
:101740005A60274B98472268536843F0020353605E
:10175000BDE8F081122F2AD1112E39D10F2D37D1AA
:10176000204B2360A3F5B8231A6822F040421A6088
:101770001A6842F000421A605A6822F03C025A602D
:101780005A6842F028025A6003F55023D3F8AC217E
:1017900022F44062C3F8AC21D3F8AC2142F4806259
:1017A000C3F8AC21D3F8C42042F40012B5E7382FB7
:1017B0000ED1372E0CD1342D0AD10A4B0A4A2360A0
:1017C000D36843F4703343F44073D360074BDDE7D1
:1017D00000232360A3E700BF780700100000034048
:1017E000051600000080084000C0024000C00F4005
:1017F00049250000074B1B684BB1DA689107FCD5FF
:101800009860DA685207FCD59868C0B270471846ED
:10181000704700BF78070010002307B5ADF802300D
:101820008DF80430C0F3421300F01F008DF8003033
:101830008DF80100024B6846984703B05DF804FB41
:1018400055230000004B1847191800000A460121D3
:1018500000F01F039940C0F34210014B184700BF2E
:10186000492500000121014B184700BF4D18000019
:101870000021014B184700BF4D180000012100F066
:101880001F039940C0F34210004B18475125000038
:10189000012100F01F039940C0F34210004B18478C
:1018A0005925000070B504460D46054B9847204663
:1018B0001DB1044BBDE870401847034BFAE700BF69
:1018C000651800007D1800009118000010B5064B47
:1018D0000446C0F34210984704F01F04E04040F370
:1018E0000000C0B210BD00BF612500007047704706
:1018F00000207047002382B00093009B834202D3F4
:10190000019802B07047009B0193009B0133F3E7FD
:101910002DE9F0431D48ADF5037D1D4CA0474FF464
:1019200000734FF480451B4FDFF88480DFF884900C
:101930000193019EB6F5007F16D01648164B9847C6
:10194000B5F5804F19D91548A047154C154B20689F
:101950009847154B019021681868144B984701204F
:101960000DF5037DBDE8F08301AB324602A9384690
:10197000C04720B10748084B98470020F0E72846A9
:10198000324602A9C847019B1D44D2E7B339000083
:10199000011F0000B4090010A9340000CF39000075
:1019A00004000010C1340000000000109135000058
:1019B000C9320000A50C000008B51C20014B984757
:1019C00008BD00BFCD18000070B5084B9847084B04
:1019D0009847084B9847084C084DA04718B1BDE8F8
:1019E0007040074B1847A847F7E700BF211F0000CA
:1019F00041130000F9130000E52000000D15000060
:101A0000A113000010B50A4C0A490B4B002098475F
:101A10000122216809480A4B984718B9BDE81040CF
:101A2000084B18472168084B08489847002010BD0C
:101A300000000010860700104D310000B4090010AE
:101A40006D31000011190000011F0000DE39000097
:101A5000F8B53E20584B984700213E20574B9847F9
:101A6000574B98471C20574B98471C20564B98477C
:101A70004FF4E13202210320544B9847544B01228A
:101A800019685448544CA047544B9847074610B126
:101A90005348544B98470623072208210920524DEA
:101AA000524EA847B04720B9514B98477FB951488B
:101AB00015E05148A047002FF9D010230F22112123
:101AC0001220A847B04760B14C48A04701E0002869
:101AD000F3D04B4B984738B14A4B98474A48A047F8
:101AE0000AE0434B9847F4E74FF480431B68013307
:101AF00001D14648F3E71FB94548A047454B9847F1
:101B000044F204014448A047444CA0470028FCD1BB
:101B1000434B98474348334988474FF48042424BF0
:101B20009A600122414BC3F88020AA22C3F88C207E
:101B30005522C3F88C20D3F8882012F00072FAD115
:101B4000C3F88020AA22C3F88C205522C3F88C2029
:101B5000364A1346D2F8880010F08070FAD1C2F8E5
:101B6000A000AA20C2F8AC005520C2F8AC00D3F8FF
:101B7000A82012F40072FAD11868C0F30B001860A4
:101B8000186840F4A0401860C3F804214FF47A703C
:101B9000C3F80C21C3F8A0218847BFF35F8FBFF3C0
:101BA0004F8FBFF36F8F4FF480431B6883F3088818
:101BB00044F204031B68984765180000A51800004C
:101BC000D324000045180000711800001105000022
:101BD00008000010F2390000011F0000B9190000D0
:101BE000404B4C00F5180000590D0000E9120000B0
:101BF000051A00008E3A0000033A0000143A000073
:101C0000B9240000C5240000363A00004B3A000019
:101C1000623A0000C9190000773A00007D05000013
:101C20002D050000C0C62D0000ED00E000C00F40F3
:101C3000004870476A6574C9022870B50D4614469D
:101C400009DC064EB047A042FCDB21462846BDE831
:101C50007040034B1847104670BD00BF650500007B
:101C60001D06000008B50248024B9847FEE700BF7A
:101C700096390000011F000008B50248024B984742
:101C8000FEE700BF74390000011F000008B50248DC
:101C9000024B9847FEE700BF85390000011F000096
:101CA00008B50248024B9847FEE700BF64390000C0
:101CB000011F000008B50248024B9847FEE700BF2D
:101CC000A1390000011F000002460346981A13F8CC
:101CD000011B0029FAD1704770B5064B064608462D
:101CE0000D4698470446024629463046024B98471F
:101CF000204670BDC91C0000391C0000F0B50A2543
:101D000000262F463146104A104B1468DFF840C0B9
:101D1000984202D2012B00D051B1B0FBF3F606F18C
:101D2000300E03FB160001260CF804E001310134EB
:101D3000013DB3FBF7F3EBD106B11460002013684B
:101D4000034AD0540846F0BDD809001000CA9A3B97
:101D5000DC090010002810B50CDA074A01241368CA
:101D60004042591C11602D21044AD154044B98471C
:101D7000204410BD0024F9E7D8090010DC09001048
:101D8000FD1C0000174AF0B503461668F8B930206C
:101D9000711C116014498855184613E01B01013469
:101DA00013F0704FFAD0002108460F4DDFF83CE0E9
:101DB000354487196BB904EB000CBCF1070F08DD43
:101DC00001B1176000211368074AD154F0BD002407
:101DD000E6E7190F11F80E101B01295401300121FB
:101DE000E7E700BFD8090010DC090010CA3A00007C
:101DF0002DE9F3470026804615463446DFF8FC906F
:101E0000374F01F1FF3A1AF8013F8DF807301BB93F
:101E1000304602B0BDE8F087002C55D000223A6071
:101E2000A3F16302152A46D8DFE802F0302A4545BF
:101E30004545454545144545454045450B452345E4
:101E4000453A29684046274B98472C1D06442546AD
:101E5000002403E0042C0CBF082404243A68002A60
:101E6000D1D021494046C8473B681E4400233B600F
:101E7000C9E7042CECD828681C4B2C1D9847E6E7D2
:101E8000042CE5D82C1D2868194BF7E72B6802A90C
:101E900001F8013D012240462C1DC8470136D6E716
:101EA000042CD5D82C1D2868124BE7E702221249D2
:101EB0000020C847F6E70C4A25215370002402236E
:101EC000117094703B60C9E7252B06D001220DF1FB
:101ED00007014046C847013695E7022493E700BF53
:101EE000D8090010D91C0000DC090010FD1C0000FE
:101EF000551D0000851D0000DB3A0000391C000064
:101F00000FB407B504AA52F8041B044B0192002039
:101F1000984703B05DF804EB04B07047F11D000072
:101F200008B50348034B9847034B044A1A6008BDA1
:101F3000120000104D090000EC09001000400000E4
:101F40000E4B018A03600E4A838941600D4802EB03
:101F50004323036081B10B440B490A44934294BF6D
:101F600003220A2209490A4B95BF0A700A7005220A
:101F700008211A7188BF1970704700BFF00900105E
:101F800000400000EC09001000C00700E809001044
:101F90000C00001009220D4B30B51A7083890C4AD1
:101FA0000C4902EB43230B60018A0B4D5C182A4459
:101FB000944202D80360416030BD00230371437135
:101FC0008371C37101230372F6E700BFE8090010B3
:101FD00000400000EC09001000C007000022044B84
:101FE0001A7002221A71034B034A1A60704700BF2D
:101FF0000C000010EC09001000400000837A03F090
:102000007F03212B14D1C37A013B052B10D8DFE8C5
:1020100003F0030507101210094B1847094BFCE7A2
:10202000094B062203600023027143718371C3715F
:102030007047064BF1E7064B012203600023F3E7EC
:10204000411F0000951F00000C000010DD1F000064
:10205000E8090010837A70B503F07F03212B044652
:1020600017D1C37A022B28D0032B13D0012B10D108
:10207000038A164DE3B1164E4FF4007215493068CD
:10208000154B984780B9228A33681344336005237F
:102090002B7170BD0D4B114A1B79082B1370F8D1B1
:1020A000BDE870400E4B184706232B700A23EFE75C
:1020B00006220A4B1A700823EAE70922034B1A7119
:1020C000034A018A13680B441360E2E70C00001016
:1020D000EC090010F0090010A50C0000E809001040
:1020E000A1130000034B1878A0F10803584258418F
:1020F000704700BFE809001008B50A4B1B78063B83
:10210000022B0DD8084B9847BFF34F8F0749084B58
:10211000CA6802F4E0621343CB60BFF34F8FFEE75F
:1021200008BD00BFE8090010A113000000ED00E0A9
:102130000400FA05FEE7FEE7FEE7FEE7FEE7000023
:1021400008B5064B9847064B98470648064B9847F4
:1021500008BDFEE7FEE7FEE7FEE7FEE745240000D8
:102160007524000000000000AD24000010B5294BCC
:102170002949D3F88820C2F30162032AD3F80C213D
:1021800002F0030234D1012A17D0022A1FD0D3F85B
:102190008840D3F88800D3F80421204BC4F30E0400
:1021A00004FB0333C0F307400130B3FBF0F3D2B2BA
:1021B0000132B3FBF2F30B6010BDD3F88840D3F8C3
:1021C0008800C4F30E04D3F80421154BE8E7D3F8D4
:1021D0008820D3F88840D3F80401C2F30E030133FA
:1021E000C4F3074201321B04B3FBF2F3C2B2DFE7D0
:1021F000D3F80431012ADBB203F1010305D0022A2E
:1022000005D0084AB2FBF3F3D5E7074AFAE74FF4E3
:102210000042F7E700C00F409000001000127A0063
:1022200000366E0100093D00001BB700202310B5E9
:10223000414C86B0C4F8A031D4F8A0319B0603D538
:10224000D4F8A0315806FBD50023C4F8A831C4F84F
:10225000AC310123C4F80C310223C4F80431362315
:1022600001A900936846354B9847029B13F4801FE1
:1022700018BF0E224FF0AA0308BF314AC4F88420C9
:10228000C4F88C3055230122C4F88C302A4BC3F893
:102290008020AA22C3F88C205522C3F88C20D3F8C2
:1022A00088205101FBD50322C3F88020AA22C3F85D
:1022B0008C205522C3F88C201F4BD3F8882012F0B5
:1022C000407FFAD02322AA21C3F8A420012055225E
:1022D000C3F8AC10C3F8AC20C3F8A000C3F8AC102E
:1022E000C3F8AC20144B1C46D3F8A8205205FBD5EC
:1022F0000322C3F8A020AA22C3F8AC205522C3F8B9
:10230000AC20D4F8A83013F4407FFAD00D4B984796
:102310000D4B0E4AC4F8C4300023C4F8C83145F24E
:102320003A0323600A4B1B6823F0404323F07F03EA
:10233000936006B010BD00BF00C00F40F11FFF1F2B
:10234000180001006D2100000884208000ED00E0ED
:1023500000000000F0B5477803233A460F2F88BFEE
:10236000A7F110024FEA420203FA02F36FEA0303F5
:10237000047890F802C04FEA440588BF0135A900EF
:1023800001F1804101F530310E680CFA02FC1E406B
:1023900046EA0C060E600C4E56F825100B40C1782C
:1023A00001FA02F21343012246F8253002FA07F738
:1023B000064B0279012A53F824200CBF174322EA66
:1023C000070743F82470F0BD40C0024068C00240D7
:1023D000062996BF114B002333F81130012A104A09
:1023E00009D1904203D14268134343607047426869
:1023F00013434360704790426FEA030306D142687B
:1024000022F070029205920D1340EEE7426822F02E
:10241000F8029205920D1340EBE700BFDE3A000090
:1024200000000140007DC0B27047806820F030009D
:102430008005800D7047007D80F04000C0F3801063
:102440007047000001224FF0FF31094BC3F88010A4
:10245000C3F88420C3F88011C3F8842100221046F9
:1024600099180132202A81F80003F9D1704700BF82
:1024700000E100E04FF020620A4B0B495A60002255
:102480009A60D96011461A615A6198180132202A5F
:102490000176FAD14FF0FF3259629A62DA621A631A
:1024A000704700BF00ED00E00000FA05014B9860A6
:1024B000704700BF00ED00E04FF080431878C0F394
:1024C000800070474FF08042137803F0FB031370D5
:1024D000704772B64FF08043AA221A7255221A72C0
:1024E00062B67047042807D8064B53F820301BB15A
:1024F0001AB11A681143196070471A6822EA01017B
:10250000F9E700BFEC3A0000042804D8024B53F866
:10251000203003B199617047EC3A0000042804D8D8
:10252000024B53F8203003B1D9617047EC3A0000F8
:10253000042805D8034B53F8200010B140697047B8
:1025400000207047EC3A0000004B1847E5240000DB
:10255000004B184709250000004B18471D250000B7
:10256000004B18473125000001380A44914200D140
:10257000704711F8013B00F8013FF7E708B5036821
:1025800073B11A7862B1D9888288914208D158789B
:10259000044B984710F0010F14BF0320002008BD22
:1025A0000920FCE7C5360000CA7E8B7E032843EA7B
:1025B000022301BF487D0A7D42EA002243EA02432A
:1025C000184670472DE9F843D0F82A5004468D424A
:1025D0000F4602D10020BDE8F883037963B9002FCC
:1025E000F8D001233A4604F12E016078134DA84734
:1025F00060B9C4F82A70EEE700F12E09104E0123ED
:102600002A4649464078B047B04608B10120E2E783
:10261000D4F81E30D4F81A2020711344AB42DED90E
:10262000E678012EDBD9D4F81A3049461D442A46F3
:1026300001236078013EC047F6B2F2E7DD360000C4
:102640000937000038B50A46044600F12E0101237F
:1026500040780F4DA847B8B994F82D2294F82C3241
:1026600043EA02234AF6552293420FD1636E094A88
:1026700023F07F43934206D0D4F8800020F07F40BF
:10268000801A18BF012038BD0320FCE70220FAE7BA
:10269000DD36000046415400F8B5036815461A7847
:1026A000303A092A16D900230B608B4B1C68002C8A
:1026B00000F00A810C602378BBB16078874B9847A3
:1026C000C60712D4002D00F0018110F0040000D0E4
:1026D0000A20F8BD5C783A2CE5D102330360002370
:1026E0000B60002AE1D00B20F3E700207C4B207028
:1026F00060709847C10700F1EB800DB14207E7D445
:1027000000212046774EB047012840F0CA8094F857
:10271000F0310BB90D20DCE7D4F8F45120462946FE
:10272000B047032800F0D6800028F3D194F83A206F
:1027300094F8393043EA0223B3F5007FEAD194F8E4
:10274000453094F8442094F83EC052EA032208BF72
:10275000D4F852200CF1FF33012BC4F81A2084F86E
:1027600003C0D7D894F83B60A670002ED2D0731E59
:102770003342CFD194F8403094F83F0040EA032030
:1027800003072081C6D194F8411094F8423094F8A0
:102790003D7051EA032394F83C1008BFD4F84E3042
:1027A00051EA0721B6D002FB0CFC01EB101767447D
:1027B000BB42AFD3DB1BB3FBF6F3002BAAD040F632
:1027C000F5764FF6F57EB3428CBF0226012673459F
:1027D00088BF03262F4402332944032EC4F8163041
:1027E000C4F82670C4F81E105DD1002892D1D4F828
:1027F0005A109B00C4F8221003F2FF13B2EB532FC0
:1028000088D34FF0FF33A373E373237463740023FF
:10281000032EA372E3722373637330D1637194F850
:102820005E2094F85F3004F12E0142EA03222A442C
:10283000C4F81220012360782B4DA847F8B994F80A
:102840002D2294F82C3243EA02234AF65522934271
:1028500015D1D4F82E20254B9A4210D103F1FF5305
:10286000D4F8122203F5005320339A4201BFD4F862
:102870001A32C4F80A30D4F81632C4F80E300020E8
:102880001B4A2670138884F82A0001339BB21380F8
:10289000E38084F82B0084F82C0084F82D0020714C
:1028A00017E700253DE700283FF434AF6144022ECE
:1028B000C4F822104FEA43011BBFC91803F00103FB
:1028C0000B4603EB510397E70C2002E7284600E78D
:1028D0000320FEE60120FCE6BC000010C536000027
:1028E000AD36000045260000DD3600005252614141
:1028F000C000001038B50021324B0446984703460B
:1029000000285AD12278032A4FD16279002A4CD06C
:1029100004F12E010A4684F82A0084F82B0084F87A
:102920002C0084F82D0004F22E20824246D155233B
:1029300084F82C32AA2384F82D32522384F82E30C6
:1029400084F82F3061234122722084F8303084F8DB
:102950001532D4F80E3084F8312084F81422C3F3F1
:10296000072284F8163284F817221A0C1B0E84F8FA
:102970001932D4F80A3084F81822C3F3072284F8F5
:102980001A3284F81B221A0C1B0E84F8120284F8E7
:10299000130284F81C2284F81D32D4F8122001237B
:1029A0006078094DA84700236371002260781146C2
:1029B000064B9847003018BF012038BD02F8013B94
:1029C000B3E700BFC5250000093700003537000018
:1029D000D0F816300239023B8B4283BF8378D0F89F
:1029E000260001FB030000207047000001292DE9AB
:1029F000F04106460D4663D9D0F816308B425FD9B8
:102A00000378022B2CD0032B3DD0012B09D101EBF5
:102A10005107D0F81E10DFF8AC8001EB5721C047FA
:102A200010B14FF0FF3019E0D6F81E10C7F30803BD
:102A30000137334401EB5721304693F82E40C0470D
:102A40000028EED1C7F308073E4496F82E00EB07A6
:102A500044EA00204CBF0009C0F30B00BDE8F08140
:102A6000D0F81E10174B01EB152198470028D8D13C
:102A70006D0005F4FF75354495F82F3095F82E005C
:102A800040EA0320EAE7D0F81E100E4B01EBD51107
:102A900098470028C5D1AD0005F4FE7505F12E0359
:102AA00033449878DA780004354440EA026095F8B7
:102AB0002E205B78104340EA032020F07040CDE7E1
:102AC0000120CBE7C5250000F8B50D46C18081681F
:102AD0000446012901D10220F8BD0368D3F816206D
:102AE0008A42F8D9D9B91A78032A02D1D3F8221028
:102AF000A9B9002222736273A273E2731A89AA42EF
:102B0000E9D9D3F8223003EB15132361236805F0CC
:102B10000F052E3303EB451565610020DCE79E7839
:102B20000D4F3601B542206806D2E1600B4B984745
:102B300000EB15102061E9E7B847431C014609D0B6
:102B40000128C8D92368D3F816308342C3D9AD1BF6
:102B5000ADB2E7E70120BFE7ED290000D129000071
:102B600010B5084BC1880446984750B921692068C0
:102B7000054B984728B9E52263691A70012223683A
:102B80001A7110BDC92A0000C525000001292DE9D0
:102B9000F04105460C46164678D9D0F816308B42DF
:102BA00074D90378022B3DD0032B4ED0012B6BD16F
:102BB00001EB5107D0F81E10DFF8D48001EB57214C
:102BC000C04718BBC7F3080314F001042B4417BF18
:102BD00093F82E10F1B201F00F0031011CBF01F08B
:102BE000F001014383F82E100123D5F81E100137A0
:102BF0002B7101EB57212846C04738B9C7F30807A6
:102C00002F443CB1C6F3071287F82E2001232B7105
:102C1000BDE8F08197F82E20C6F3032622F00F02BC
:102C20003243F1E7D0F81E10194B01EB14219847FD
:102C30000028EBD1640004F4FF742C44C6F307228F
:102C400084F82E6084F82F20E0E7D0F81E10104B97
:102C500001EBD41198470028D8D1A40004F4FE74E5
:102C600004F12E012944CB782C441B0603F0704359
:102C700043EA0602C2F3072384F82E204B70130C9C
:102C8000120E8B70CA70C1E70220BFE70220BFE7B7
:102C9000C52500002DE9F04105460F46A9B9D0F839
:102CA0000A60EEB1D0F816309E4228BF01263446A5
:102CB000DFF88C80D5F816300134A34213D8012EEA
:102CC00010D800242046BDE8F0811D4B984701280C
:102CD000044632D9D5F816308342F3D83E46E6E7AB
:102CE0000126E4E7022421462846C04748B1411C9A
:102CF00002D14FF0FF34E5E701281ED0B442D9D10C
:102D0000DFE76FF07042214628460E4EB04790B97B
:102D10005FB9D5F80E30C5F80A405A1CD2D0013B35
:102D2000C5F80E3001236B71CCE7224639462846A0
:102D3000B0470028EDD00128DBD00124C2E700BF56
:102D4000ED2900008D2B00002DE9F047C5880446D1
:102D50000135ADB20F4615B90420BDE8F08703690F
:102D6000002BF9D015F00F0807D1E1680133006896
:102D7000236151B90389AB42EED92368E5802E3334
:102D800003EB481363610020E7E78378013B13EA14
:102D90001513F2D12C4B98470128064601D8022082
:102DA000DBE7421C01D10120D7E72068D0F81630BC
:102DB000B3422ED8002FCFD0E168244B9847064667
:102DC00000283FD00128EAD0431CECD00021206825
:102DD0001F4FB8470028E6D1236803F12E0203F203
:102DE0002E2393421CD1226831461046194B984736
:102DF0004FF000094FF0010AC2F82A0020685FFA7C
:102E000089F2837893420ED8D0F82A309B1AC0F802
:102E10002A30E660314620680E4B98472061ACE7C7
:102E200002F8010BDDE780F804A00021B84709F1A2
:102E300001090028B7D12268D2F82A300133C2F83C
:102E40002A30DBE7072088E7ED290000952C0000F9
:102E5000C5250000D12900002DE9F8430B78044670
:102E60002F2B0D4601D05C2B00D101350026267298
:102E70006672A672E6722B781F2B35D95D4E2B78C1
:102E8000AE462F2B05F10105F9D05C2BF7D0A069D8
:102E90002021034600F10B0293422FD14FF000088E
:102EA0004FF0080C454647460EF1FF3919F8013F2F
:102EB0000135202B2CD92F2B2AD05C2B28D02E2B60
:102EC00000F08180C4450DD91A0644BF803BF35CF5
:102ED000494948BF47F0030711F8012F002A7BD06A
:102EE0009342F9D1062007E031462046434B9847EC
:102EF00026756675A675E675BDE8F88303F8011BAF
:102F0000CAE747F0020700F8083008F10108CDE7EA
:102F1000212B754434BF04230023B8F1000FE1D006
:102F20000178E52904BF05210170BCF1080F04BF39
:102F3000BA00D7B207F00301012907F00C0208BF5D
:102F400043F01003042A08BF43F00803C3720021B2
:102F500020462A4B9847E0B9DFF8AC80284F21691A
:102F60002068C047A8B962691378E3B1D37A19071A
:102F70000AD4A36903F10B0E73450AD012F801CBF2
:102F800013F8011B8C45F7D000212046B8470028D4
:102F9000E5D0A369DB7A40B10428ADD113F0040F6A
:102FA00008BF0520A8E70420F3E75A07A4D4616905
:102FB000CB7ADB0605D523681878124B9847A060BA
:102FC0005DE7052098E7BCF1080F8BD1BA00E04619
:102FD000D7B24FF00B0C69E7A3F14102192A90D93F
:102FE000A3F16102192A9EBF203B47F00107DBB223
:102FF00089E700BF003B00007F3B0000C92A0000BA
:10300000492D0000A9250000C52500002DE9F0414B
:1030100000211A4B05469847044698B9184EDFF828
:103020006880374629692868B047044650B96B69FB
:103030001B78E52B0CD05BB101212846C047044624
:103040000028EFD02046BDE8F08103F8011B0AE01C
:1030500029692868B84704460028F3D168692146E1
:10306000034600F120029A42EFD10B22054BA969D9
:10307000984701222B681A71E4E700BFC92A0000B3
:10308000C525000069250000492D000070B50446E3
:103090000420114D114E216909B968B113E020686F
:1030A000A84780B9626913789BB1E52B06D02E2B17
:1030B00004D0D37A1B0701D4002070BD0021204624
:1030C000B0470028E7D0002323746374A374E3742B
:1030D000F3E70420F7E700BFC5250000492D0000F5
:1030E00001292DE9F04104460D4602D80220BDE831
:1030F000F081D0F816308B42F8D9124FDFF84880B3
:10310000D4F816309D4204D229462046B8470646D8
:1031100008B90020EBE70128E8D0411C10D00022BC
:1031200029462046C0470028E1D1D4F80E30354664
:103130005A1C1FBF0133C4F80E3001236371DFE74F
:103140000120D4E7ED2900008D2B000048B9064B83
:103150001A6802B1107009B100220A7019600020CB
:1031600070470B20704700BFBC0000102DE9F047EE
:103170008CB0019117460546002800F0918000238D
:1031800002F01E02037043708370C37005A901A88A
:10319000464B9847064600287ED102AB0B93019917
:1031A00005A8434B98470A9C10B9002C08BF06207D
:1031B00017F01C0F07F01F0846D000283CD0042849
:1031C00002D105A83B4B984748F0080890BB0A9CE1
:1031D00018F0080F41D0384B98470027C0F3072359
:1031E000A073E373030C000E2374E7726074DDF8C0
:1031F000149027776777A777E77799F800002F4B28
:10320000214698470123A776E7762775677589F8E1
:103210000430074608B30146294B4846D9F82AA08E
:10322000984738B90598013FC0F80A705146254BB8
:10323000984790B106462FE0E37A13F0110F33D18F
:103240007807C5D5082627E00028F3D1E37AD90608
:1032500028D4BA0701D5DB0726D4059F18F0080F3C
:10326000D7F82A3018BF48F02008EB612C6285F8A7
:1032700006803878114B214698472861E3692F6012
:10328000EB6000232B726B72AB72EB722B766B765A
:10329000AB76EB76FB88AB8030460CB0BDE8F087B0
:1032A0000926F9E70426F7E70726F5E7992600003F
:1032B000592E00000D300000311C0000A92500002F
:1032C000E1300000C52500002DE9F74F9A460023A4
:1032D000CAF80030494B04468946154698470746C8
:1032E00080BBA37918061ED4D90740F18580E36816
:1032F000A6689E1BAE4228BF2E461EB3A268C2F32C
:103300000803002B5FD120688378013B03EA522336
:1033100013F0FF031BD142B9206901280BD8A37910
:1033200063F07F03A37102270CE06169344A0193C3
:103330009047019BF1E7421C08D10127A37963F074
:103340007F03A371384603B0BDE8F08F6061D4F805
:1033500000B0019361692B4B58469847019B0028A8
:10336000DDD0750A03EB00082BD09BF80220591919
:10337000914288BFD51A9BF80100EBB242464946FC
:10338000DFF88CB0D8470028D7D121680B7963B11A
:10339000D1F82A00A0EB0800A84206D24FF4007230
:1033A0002E3109EB4020184B98476D02A368A944C1
:1033B0002B44A360DAF80030761B2B44CAF80030A7
:1033C0009BE7C4F81880A568A169C5F30805C5F591
:1033D0000075B54220680D4B28BF35469847002838
:1033E000ABD1A3682168C3F308032E3319442A46DE
:1033F0004846054B9847D9E70727A3E77D250000F6
:10340000ED290000D129000069250000C525000034
:10341000DD36000070B5204B05469847002839D1AD
:10342000AB799B0636D5E96928681C4B9847064658
:1034300080BB2C6AE37A43F02003E372EB682377C6
:10344000EB68C3F307236377EB681B0CA377EB6888
:103450001B0EE3772B69A376C3F307221B0C23759E
:103460001B0A6375E2760E4B9847C0F30723A075DD
:10347000E375030C000E23766076A674E674AB79D0
:10348000286823F02003AB7101230371BDE870406D
:10349000044B184770BD00BF7D250000C525000006
:1034A000311C0000F528000010B5044B0446984775
:1034B00018B920706070A070E07010BD1534000065
:1034C00070B594B00190012206A901A8274B984736
:1034D0000446E8B903AB0C93019906A8244B98471E
:1034E0000446A8B90B9EB6B1F37A13F0010F18BFCA
:1034F0000724069B314618781E4B984705463CB971
:10350000F37ADB0609D406A81B4B98470446D8B1CA
:10351000204614B070BD0624EBE7012822D91C22F6
:1035200006A90DA8154B984702210DA8144B0F951D
:10353000984704460028EBD10DA8124B9847044643
:1035400090B10428E4D1DEE725B906980E4B9847E0
:103550000446DDE7294606980C4B984704460028A8
:10356000D6D1F2E70224D3E70724D1E79926000059
:10357000592E0000A9250000612B000069250000DC
:10358000C92A00008D300000F5280000E13000005D
:1035900070B59AB001900E4601220CA901A83A4BD1
:1035A0009847002868D10C9B019913930CA803AB92
:1035B000364D1293A84700285ED1119900295DD09D
:1035C00015220B3106A8324CA0470CA913A81C22C7
:1035D000A047314613A8A847002851D004284BD152
:1035E00013A82C4B9847002846D1189D13220DF1A3
:1035F0001A0105F10D00A0479DF8183043F0200393
:10360000EB7201230C9C23710E9A159B9A422CD0CD
:10361000EB7ADB0629D529461F4B207898471F4BAC
:10362000014620469847014660B320461C4B984708
:1036300010BB0C9A92F84F302E2B16D11178159B97
:10364000032904D1D2F82210994208BF0023C3F302
:10365000072182F868301B0C82F862301B0A82F85E
:103660006330012382F8691013710CA80D4B984741
:1036700010B90C980C4B98471AB070BD0420FBE7AA
:103680000820F9E70220F7E799260000592E0000EC
:10369000692500000D300000A9250000D129000097
:1036A000C5250000612B0000F528000008B528B9E9
:1036B000034B9847003018BF012008BD0120FCE7EC
:1036C000E912000008B528B9034B9847003018BF2D
:1036D000012008BD0120FCE78D0D0000F8B50E4665
:1036E00015461C4658B9074F0CB92046F8BD294667
:1036F0003046013CB847E4B205F50075F4E7042014
:10370000F4E700BF19110000F8B50E4615461C4637
:1037100058B9074F0CB92046F8BD29463046013C40
:10372000B847E4B205F50075F4E70420F4E700BFFC
:10373000D111000010B51446C8B9042915D8DFE826
:1037400001F0030E061203000020C0B210BD094BA9
:10375000984780B22080003018BF0120F5E7064B63
:1037600098472060F7E7034BFAE70120EDE70420D4
:10377000ECE700BFA90D00009D0D000038B50A4C14
:103780000A4D641BA4100AD004F18043013B05EBF1
:103790008305013C55F804399847002CF9D1BDE860
:1037A000384000F0FFB900BFB43B0000B03B000060
:1037B000024B13B10248FEF79BB8704700000000AF
:1037C0007D370000010200426F6F742D6572726FC9
:1037D000723A204469646E27742067657420612002
:1037E000726573706F6E73652066726F6D2074689A
:1037F00065206469736B0A00426F6F742D65727285
:103800006F723A20436F756C646E27742072656125
:10381000642063736420726573706F6E73652066D5
:10382000726F6D206469736B0A00426F6F742D654F
:1038300072726F723A20534448432063617264206D
:103840007769746820726567756C617220534420D3
:1038500064657363726970746F720A00426F6F748B
:103860002D6572726F723A205344205631206F7268
:103870002056322063617264207769746820534453
:1038800048432064657363726970746F720A004202
:103890006F6F742D6572726F723A20496E76616C2B
:1038A00069642043534420256C750A00426F6F748D
:1038B0002D6572726F723A20536574203531322D46
:1038C0006279746520626C6F636B2074696D6564E6
:1038D000206F75740A00426F6F742D6572726F727B
:1038E0003A204E6F7420696E2069646C6520737491
:1038F0006174652061667465722073656E64696EBB
:103900006720434D443820286E6F7420616E205329
:103910004420636172643F290A00426F6F743A2049
:1039200054696D656F75742077616974696E67207D
:10393000666F722076312E7820636172640A0042CD
:103940006F6F743A2054696D656F75742077616983
:1039500074696E6720666F722076322E78206361FC
:1039600072640A00426F6F743A2042757346617543
:103970006C740A00426F6F743A2048617264466149
:10398000756C740A00426F6F743A204D656D4D611D
:103990006E6167650A00426F6F743A204E4D490AA6
:1039A00000426F6F743A2055736167654661756CAC
:1039B000740A00426F6F743A20466C617368696ED6
:1039C00067206669726D776172652E2E2E0A00423D
:1039D0006F6F743A20537563636573730A00426FA7
:1039E0006F743A202573206E6F7420666F756E6455
:1039F0000A00426F6F743A202573204446553A25D9
:103A0000640A00426F6F743A206E6F2073646361C2
:103A100072640A00426F6F743A206E6F20736463A1
:103A2000617264206F6E20646973706C61792062CA
:103A30006F6172640A00426F6F743A2057415443B9
:103A400048444F4720726573657400426F6F743A43
:103A5000205573657220666C61736820656D7074A3
:103A600079002C20656E746572696E672044465536
:103A7000206D6F64650A00426F6F743A204A756D5D
:103A800070696E6720746F20307825780A00426F65
:103A90006F743A2049535020627574746F6E2070B1
:103AA000726573736564006669726D776172652E05
:103AB000637572006669726D776172652E62696EF8
:103AC00000312E303420534B5200303132333435F4
:103AD00036373839414243444546003078000100CA
:103AE00002000400080080000001000200C009205C
:103AF00020C0092040C0092060C0092080C00920E2
:103B0000809A90418E418F804545454949498E8F25
:103B10009092924F994F555559999A9B9C9D9E9F73
:103B200041494F55A5A5A6A7A8A9AAABAC21AEAF00
:103B3000B0B1B2B3B4B5B6B7B8B9BABBBCBDBEBF0D
:103B4000C0C1C2C3C4C5C6C7C8C9CACBCCCDCECFFD
:103B5000D0D1D2D3D4D5D6D7D8D9DADBDCDDDEDFED
:103B6000E0E1E2E3E4E5E6E7E8E9EAEBECEDEEEFDD
:103B7000F0F1F2F3F4F5F6F7F8F9FAFBFCFDFEFFCD
:103B8000222A2B2C3A3B3C3D3E3F5B5D7C7F000074
:103B9000F8B500BFF8BC08BC9E467047B1370000BE
:103BA00091010000F8B500BFF8BC08BC9E46704704
:103BB0006901000000000000E03B00000000001070
:083BC00098000000580B000002
:103BC80004C5FF7F0100000070E5FF7FB0B0B08042
:083BD80094E5FF7F01000000ED
:103BE000B43A0000A73A0000C13A000000F4010016
:103BF00002001201000200000040501D156040004C
:103C00000102000109021B0001010080FA09040001
:103C10000000FE01020309210BF40100020101046E
:103C2000030904180342006900670074007200650C
:103C30000065007400650063006800180353004BC2
:103C4000005200200031002E0033002F0031002EE2
:103C50000034001A0353006D006F006F0074006899
:103C60000069006500200044004600550000000087
:083C7000000E27070000000010
:04000003000000CD2C
:00000001FF
